101 091000019 123456789012345      2003123120001A094101ACME CORP.             BANK OF AMERICA       
5200ACME PAYROLL     0910000191234567892003120101PPDPAYROLL          ACME CORP.             1
6220910000221234567890123456789000000012345John Doe               000100091000019000001      
6220910000222234567890123456789000000025000Jane Smith             000100091000019000002      
820000000200091000040000000000012345000000002500091000019                         000001     
5200ACME PAYROLL     0910000191234567892003120102PPDPAYROLL          ACME CORP.             2
6220910000223234567890123456789000000050000Alice Johnson          000100091000019000003      
6220910000224234567890123456789000000030000Bob Brown              000100091000019000004      
8200000002000910000400000000000500000000000300091000019                         000002       
9000002000004000000040000000000623450000000005500
